:100000000C9434000C943E000C943E000C943E0082
:100010000C943E000C943E000C943E000C943E0068
:100020000C943E000C943E000C943E000C943E0058
:100030000C943E000C943E000C943E000C943E0048
:100040000C943E000C943E000C943E000C943E0038
:100050000C943E000C943E000C943E000C943E0028
:100060000C943E000C943E0011241FBECFEFD8E04C
:10007000DEBFCDBF0E945A000C9464000C940000B7
:1000800021E11FEF1150F1F7000000000000000017
:100090000000000000000000000000000000000060
:1000A0000000000000000000215059F7189A41504C
:1000B00039F708957FEF80E001E074B94FEFE0DF9A
:0C00C0004DE2DEDF1D9AFACFF894FFCF6E
:00000001FF
