:100000000C9434000C943E000C943E000C943E0082
:100010000C943E000C943E000C943E000C943E0068
:100020000C943E000C943E000C943E000C943E0058
:100030000C943E000C943E000C943E000C943E0048
:100040000C943E000C943E000C943E000C943E0038
:100050000C943E000C943E000C943E000C943E0028
:100060000C943E000C943E0011241FBECFEFD8E04C
:10007000DEBFCDBF0E945A000C9475000C940000A6
:1000800021E11FEF1150F1F7000000000000000017
:100090000000000000000000000000000000000060
:1000A0000000000000000000215059F7189A41504C
:1000B00039F708950FEF30E060E804B93AB979B143
:1000C0007623E9F700C04FEFDBDF4FEFD9DF4FEFCB
:1000D000D7DF4FEFD5DF4FEFD3DF4FEFD1DF4FEF5C
:0E00E000CFDF4FE0CDDF1D9AEACFF894FFCFBF
:00000001FF
