:100000000C9434000C943E000C943E000C943E0082
:100010000C943E000C943E000C943E000C943E0068
:100020000C943E000C943E000C943E000C943E0058
:100030000C943E000C943E000C943E000C943E0048
:100040000C943E000C943E000C943E000C943E0038
:100050000C943E000C943E000C943E000C943E0028
:100060000C943E000C943E0011241FBECFEFD8E04C
:10007000DEBFCDBF0E9459000C9475000C940000A7
:1000800021E11FEF1150F1F7000000000000000017
:100090000000000000000000000000000000000060
:1000A0000000000000000000215059F7415041F7C6
:1000B00008950FEF30E060E804B93AB979B17623DA
:1000C000E9F700C01D9A4FEFDBDF4FEFD9DF4FEFAD
:1000D000D7DF4FEFD5DF4FEFD3DF4FEFD1DF4FEF5C
:0E00E000CFDF4FE0CDDF1D9AE9CFF894FFCFC0
:00000001FF
