:100000000C9434000C943E000C943E000C943E0082
:100010000C943E000C943E000C943E000C943E0068
:100020000C943E000C943E000C943E000C943E0058
:100030000C943E000C943E000C943E000C943E0048
:100040000C943E000C943E000C943E000C943E0038
:100050000C943E000C943E000C943E000C943E0028
:100060000C943E000C943E0011241FBECFEFD8E04C
:10007000DEBFCDBF0E9440000C9479000C940000BC
:1000800001E004B900E005B931E021E11FEF1150B2
:10009000F1F7000000000000000000000000000078
:1000A0000000000000000000000000000000000050
:1000B0000000215059F7315041F701E005B931E016
:1000C00021E11FEF1150F1F70000000000000000D7
:1000D0000000000000000000000000000000000020
:1000E0000000000000000000215059F7315041F796
:0600F000C9CFF894FFCF18
:00000001FF
