:100000000C9434000C943E000C943E000C943E0082
:100010000C943E000C943E000C943E000C943E0068
:100020000C943E000C943E000C943E000C943E0058
:100030000C943E000C943E000C943E000C943E0048
:100040000C943E000C943E000C943E000C943E0038
:100050000C943E000C943E000C943E000C943E0028
:100060000C943E000C943E0011241FBECFEFD8E04C
:10007000DEBFCDBF0E944A000C9453000C940000D8
:1000800039E22FEF1FEF1150F1F72150D9F731501E
:10009000C1F708950FEF04B900E005B9F1DF0FEFE4
:0A00A00005B9EEDFF9CFF894FFCFA9
:00000001FF
