:100000000C9434000C943E000C943E000C943E0082
:100010000C943E000C943E000C943E000C943E0068
:100020000C943E000C943E000C943E000C943E0058
:100030000C943E000C943E000C943E000C943E0048
:100040000C943E000C943E000C943E000C943E0038
:100050000C943E000C943E000C943E000C943E0028
:100060000C943E000C943E0011241FBECFEFD8E04C
:10007000DEBFCDBF0E9440000C9459000C940000DC
:100080000FEF04B900E005B939E22FEF1FEF11506F
:10009000F1F72150D9F73150C1F70FEF05B939E227
:1000A0002FEF1FEF1150F1F72150D9F73150C1F761
:0600B000E9CFF894FFCF38
:00000001FF
