:100000000C9434000C943E000C943E000C943E0082
:100010000C943E000C943E000C943E000C943E0068
:100020000C943E000C943E000C943E000C943E0058
:100030000C943E000C943E000C943E000C943E0048
:100040000C943E000C943E000C9440000C9446002E
:100050000C943E000C943E000C943E000C943E0028
:100060000C943E000C943E0011241FBECFEFD8E04C
:10007000DEBFCDBF0E9465000C947E000C94000092
:100080000091C60010621093C10018951F7710935D
:10009000C1000E3661F00E3451F00EE60093C6003A
:1000A0001F7D1093C10010681093C100189529336B
:1000B00041F41F7D1093C1002FE210681093C1001E
:1000C000189523952093C600189500E00093C5006D
:1000D00007E60093C40000E20093C00006E000932E
:1000E000C20018EB1093C10002E00AB900E204B9A3
:1000F00000E01D982FE27894FFCF0895F894FFCF89
:00000001FF
