:100000000C9434000C943E000C943E000C943E0082
:100010000C943E000C943E000C943E000C943E0068
:100020000C943E000C943E000C943E000C943E0058
:100030000C943E000C943E000C943E000C943E0048
:100040000C943E000C943E000C9447000C943E002F
:100050000C943E000C943E000C943E000C943E0028
:100060000C943E000C943E0011241FBECFEFD8E04C
:10007000DEBFCDBF0E944C000C9460000C940000C9
:100080001091C00015FFFCCF0093C60008950091A9
:10009000C6000E944000189500E00093C50007E6E6
:1000A0000093C40000E20093C00006E00093C20089
:1000B00008E90093C10002E00AB97894FFCF0895DF
:0400C000F894FFCFE2
:00000001FF
