:100000000C9434000C943E000C943E000C943E0082
:100010000C943E000C943E000C943E000C943E0068
:100020000C943E000C943E000C943E000C943E0058
:100030000C943E000C943E000C943E000C943E0048
:100040000C943E000C943E000C943E000C943E0038
:100050000C943E000C943E000C943E000C943E0028
:100060000C943E000C943E0011241FBECFEFD8E04C
:10007000DEBFCDBF0E9453000C9465000C940000BD
:1000800002E51FEF2FEF2150F1F71150D9F7015082
:10009000C1F708952D9A08952D9808951D9A0895F1
:1000A00079B17823089580E260E050E04FEF44B9E1
:1000B0005AB965BF8BB90E944C000E945000E9F705
:0E00C0000E944E000E944000F8CFF894FFCF3F
:00000001FF
