:100000000C9434000C943E000C943E000C943E0082
:100010000C943E000C943E000C943E000C943E0068
:100020000C943E000C943E000C943E000C943E0058
:100030000C943E000C943E000C943E000C943E0048
:100040000C943E000C943E000C943E000C943E0038
:100050000C943E000C943E000C943E000C943E0028
:100060000C943E000C943E0011241FBECFEFD8E04C
:10007000DEBFCDBF0E9466000C9476000C94000099
:1000800046E903D046E901D008952BE011EF115065
:10009000F1F72150D9F7189A4150B9F7089546E978
:1000A00003D046E901D008952BE011EF1150F1F78C
:1000B0002150D9F700004150B9F70895E1DFEFDF93
:1000C0000CC0DEDFDDDFDCDFEADF07C00FEF30E092
:1000D00050E904B93AB935BF5BB960E170E889B15C
:1000E000862361F799B1972361F7F7CFF894FFCF93
:00000001FF
