:100000000C9434000C943E000C943E000C943E0082
:100010000C943E000C943E000C943E000C943E0068
:100020000C943E000C943E000C943E000C943E0058
:100030000C943E000C943E000C943E000C943E0048
:100040000C943E000C943E000C943E000C943E0038
:100050000C943E000C943E000C943E000C943E0028
:100060000C943E000C943E0011241FBECFEFD8E04C
:10007000DEBFCDBF0E944A000C9451000C940000DA
:100080001BE001EF0150F1F71150D9F7189A4150D8
:10009000B9F708952FEF30E042E024B93AB9F0DF24
:0600A000FECFF894FFCF33
:00000001FF
