:100000000C9434000C943E000C943E000C943E0082
:100010000C943E000C943E000C943E000C943E0068
:100020000C943E000C943E000C943E000C943E0058
:100030000C943E000C943E000C943E000C943E0048
:100040000C943E000C943E000C943E000C943E0038
:100050000C943E000C943E000C943E000C943E0028
:100060000C943E000C943E0011241FBECFEFD8E04C
:10007000DEBFCDBF0E9458000C9497000C94000086
:100080002D9A08952D9808950C36089505360895F3
:10009000043608950091C00007FFFCCF0091C60010
:1000A00008951091C00015FFFCCF0093C60008957D
:1000B00000E00093C50007E60093C40000E200934F
:1000C000C00006E00093C20008E10093C10002E016
:1000D0000AB900E204B90E94420003E30E94510001
:1000E0000E944A000E9442000E94440009F0F5CF9D
:1000F00002E30E9451000E944A000E94460021F043
:100100000E944400A9F3E9CF01E30E9451000E943C
:100110004A000E94440061F30E944800F1F60E94E8
:10012000400000E30E9451000E944A00D6CFF8949C
:02013000FFCFFF
:00000001FF
